{
  "contractName": "ConsentNFT",
  "abi": [
    {
      "inputs": [],
      "stateMutability": "nonpayable",
      "type": "constructor"
    },
    {
      "anonymous": false,
      "inputs": [
        {
          "indexed": false,
          "internalType": "uint256",
          "name": "id",
          "type": "uint256"
        },
        {
          "indexed": false,
          "internalType": "address",
          "name": "user",
          "type": "address"
        },
        {
          "indexed": false,
          "internalType": "string",
          "name": "whatData",
          "type": "string"
        },
        {
          "indexed": false,
          "internalType": "string",
          "name": "whoCanAccess",
          "type": "string"
        },
        {
          "indexed": false,
          "internalType": "uint256",
          "name": "validUntil",
          "type": "uint256"
        }
      ],
      "name": "ConsentMinted",
      "type": "event"
    },
    {
      "anonymous": false,
      "inputs": [
        {
          "indexed": false,
          "internalType": "uint256",
          "name": "id",
          "type": "uint256"
        }
      ],
      "name": "ConsentRevoked",
      "type": "event"
    },
    {
      "inputs": [],
      "name": "consentCounter",
      "outputs": [
        {
          "internalType": "uint256",
          "name": "",
          "type": "uint256"
        }
      ],
      "stateMutability": "view",
      "type": "function"
    },
    {
      "inputs": [
        {
          "internalType": "uint256",
          "name": "",
          "type": "uint256"
        }
      ],
      "name": "consents",
      "outputs": [
        {
          "internalType": "address",
          "name": "user",
          "type": "address"
        },
        {
          "internalType": "string",
          "name": "whatData",
          "type": "string"
        },
        {
          "internalType": "string",
          "name": "whoCanAccess",
          "type": "string"
        },
        {
          "internalType": "uint256",
          "name": "validUntil",
          "type": "uint256"
        },
        {
          "internalType": "bool",
          "name": "active",
          "type": "bool"
        }
      ],
      "stateMutability": "view",
      "type": "function"
    },
    {
      "inputs": [
        {
          "internalType": "string",
          "name": "_whatData",
          "type": "string"
        },
        {
          "internalType": "string",
          "name": "_whoCanAccess",
          "type": "string"
        },
        {
          "internalType": "uint256",
          "name": "_validUntil",
          "type": "uint256"
        }
      ],
      "name": "mintConsent",
      "outputs": [
        {
          "internalType": "uint256",
          "name": "",
          "type": "uint256"
        }
      ],
      "stateMutability": "nonpayable",
      "type": "function"
    },
    {
      "inputs": [
        {
          "internalType": "uint256",
          "name": "id",
          "type": "uint256"
        }
      ],
      "name": "revokeConsent",
      "outputs": [],
      "stateMutability": "nonpayable",
      "type": "function"
    },
    {
      "inputs": [
        {
          "internalType": "uint256",
          "name": "id",
          "type": "uint256"
        },
        {
          "internalType": "string",
          "name": "requester",
          "type": "string"
        }
      ],
      "name": "isValid",
      "outputs": [
        {
          "internalType": "bool",
          "name": "",
          "type": "bool"
        }
      ],
      "stateMutability": "view",
      "type": "function"
    }
  ],
  "bytecode": "0x608060405234801561000f575f80fd5b505f808190555061106c806100235f395ff3fe608060405234801561000f575f80fd5b5060043610610055575f3560e01c8063162a5b041461005957806316a0042c146100895780638cbb9524146100a5578063d557d53a146100c3578063f561e86e146100f7575b5f80fd5b610073600480360381019061006e91906108fa565b610127565b604051610080919061096e565b60405180910390f35b6100a3600480360381019061009e9190610987565b610357565b005b6100ad6104bc565b6040516100ba91906109c1565b60405180910390f35b6100dd60048036038101906100d89190610987565b6104c1565b6040516100ee959493929190610a93565b60405180910390f35b610111600480360381019061010c9190610af2565b61062a565b60405161011e91906109c1565b60405180910390f35b5f8060015f8581526020019081526020015f206040518060a00160405290815f82015f9054906101000a900473ffffffffffffffffffffffffffffffffffffffff1673ffffffffffffffffffffffffffffffffffffffff1673ffffffffffffffffffffffffffffffffffffffff1681526020016001820180546101a990610ba7565b80601f01602080910402602001604051908101604052809291908181526020018280546101d590610ba7565b80156102205780601f106101f757610100808354040283529160200191610220565b820191905f5260205f20905b81548152906001019060200180831161020357829003601f168201915b5050505050815260200160028201805461023990610ba7565b80601f016020809104026020016040519081016040528092919081815260200182805461026590610ba7565b80156102b05780601f10610287576101008083540402835291602001916102b0565b820191905f5260205f20905b81548152906001019060200180831161029357829003601f168201915b5050505050815260200160038201548152602001600482015f9054906101000a900460ff16151515158152505090508060800151801561033f5750826040516020016102fc9190610c11565b6040516020818303038152906040528051906020012081604001516040516020016103279190610c11565b60405160208183030381529060405280519060200120145b801561034e5750806060015142105b91505092915050565b3373ffffffffffffffffffffffffffffffffffffffff1660015f8381526020019081526020015f205f015f9054906101000a900473ffffffffffffffffffffffffffffffffffffffff1673ffffffffffffffffffffffffffffffffffffffff16146103f7576040517f08c379a00000000000000000000000000000000000000000000000000000000081526004016103ee90610c71565b60405180910390fd5b60015f8281526020019081526020015f206004015f9054906101000a900460ff16610457576040517f08c379a000000000000000000000000000000000000000000000000000000000815260040161044e90610cd9565b60405180910390fd5b5f60015f8381526020019081526020015f206004015f6101000a81548160ff0219169083151502179055507f17ba03014e2d53e5983887aaf82c0688082a4e7010d71f88e948319fbb6fbe8c816040516104b191906109c1565b60405180910390a150565b5f5481565b6001602052805f5260405f205f91509050805f015f9054906101000a900473ffffffffffffffffffffffffffffffffffffffff169080600101805461050590610ba7565b80601f016020809104026020016040519081016040528092919081815260200182805461053190610ba7565b801561057c5780601f106105535761010080835404028352916020019161057c565b820191905f5260205f20905b81548152906001019060200180831161055f57829003601f168201915b50505050509080600201805461059190610ba7565b80601f01602080910402602001604051908101604052809291908181526020018280546105bd90610ba7565b80156106085780601f106105df57610100808354040283529160200191610608565b820191905f5260205f20905b8154815290600101906020018083116105eb57829003601f168201915b505050505090806003015490806004015f9054906101000a900460ff16905085565b5f805f81548092919061063c90610d24565b91905055506040518060a001604052803373ffffffffffffffffffffffffffffffffffffffff1681526020018581526020018481526020018381526020016001151581525060015f805481526020019081526020015f205f820151815f015f6101000a81548173ffffffffffffffffffffffffffffffffffffffff021916908373ffffffffffffffffffffffffffffffffffffffff16021790555060208201518160010190816106ec9190610f08565b5060408201518160020190816107029190610f08565b50606082015181600301556080820151816004015f6101000a81548160ff0219169083151502179055509050507f8ac996e4d7e5c3ba7f4e25ead17616446092ef2e72acfad571a5271963beb94b5f5433868686604051610767959493929190610fd7565b60405180910390a15f5490509392505050565b5f604051905090565b5f80fd5b5f80fd5b5f819050919050565b61079d8161078b565b81146107a7575f80fd5b50565b5f813590506107b881610794565b92915050565b5f80fd5b5f80fd5b5f601f19601f8301169050919050565b7f4e487b71000000000000000000000000000000000000000000000000000000005f52604160045260245ffd5b61080c826107c6565b810181811067ffffffffffffffff8211171561082b5761082a6107d6565b5b80604052505050565b5f61083d61077a565b90506108498282610803565b919050565b5f67ffffffffffffffff821115610868576108676107d6565b5b610871826107c6565b9050602081019050919050565b828183375f83830152505050565b5f61089e6108998461084e565b610834565b9050828152602081018484840111156108ba576108b96107c2565b5b6108c584828561087e565b509392505050565b5f82601f8301126108e1576108e06107be565b5b81356108f184826020860161088c565b91505092915050565b5f80604083850312156109105761090f610783565b5b5f61091d858286016107aa565b925050602083013567ffffffffffffffff81111561093e5761093d610787565b5b61094a858286016108cd565b9150509250929050565b5f8115159050919050565b61096881610954565b82525050565b5f6020820190506109815f83018461095f565b92915050565b5f6020828403121561099c5761099b610783565b5b5f6109a9848285016107aa565b91505092915050565b6109bb8161078b565b82525050565b5f6020820190506109d45f8301846109b2565b92915050565b5f73ffffffffffffffffffffffffffffffffffffffff82169050919050565b5f610a03826109da565b9050919050565b610a13816109f9565b82525050565b5f81519050919050565b5f82825260208201905092915050565b5f5b83811015610a50578082015181840152602081019050610a35565b5f8484015250505050565b5f610a6582610a19565b610a6f8185610a23565b9350610a7f818560208601610a33565b610a88816107c6565b840191505092915050565b5f60a082019050610aa65f830188610a0a565b8181036020830152610ab88187610a5b565b90508181036040830152610acc8186610a5b565b9050610adb60608301856109b2565b610ae8608083018461095f565b9695505050505050565b5f805f60608486031215610b0957610b08610783565b5b5f84013567ffffffffffffffff811115610b2657610b25610787565b5b610b32868287016108cd565b935050602084013567ffffffffffffffff811115610b5357610b52610787565b5b610b5f868287016108cd565b9250506040610b70868287016107aa565b9150509250925092565b7f4e487b71000000000000000000000000000000000000000000000000000000005f52602260045260245ffd5b5f6002820490506001821680610bbe57607f821691505b602082108103610bd157610bd0610b7a565b5b50919050565b5f81905092915050565b5f610beb82610a19565b610bf58185610bd7565b9350610c05818560208601610a33565b80840191505092915050565b5f610c1c8284610be1565b915081905092915050565b7f4e6f7420746865206f776e6572000000000000000000000000000000000000005f82015250565b5f610c5b600d83610a23565b9150610c6682610c27565b602082019050919050565b5f6020820190508181035f830152610c8881610c4f565b9050919050565b7f416c7265616479207265766f6b656400000000000000000000000000000000005f82015250565b5f610cc3600f83610a23565b9150610cce82610c8f565b602082019050919050565b5f6020820190508181035f830152610cf081610cb7565b9050919050565b7f4e487b71000000000000000000000000000000000000000000000000000000005f52601160045260245ffd5b5f610d2e8261078b565b91507fffffffffffffffffffffffffffffffffffffffffffffffffffffffffffffffff8203610d6057610d5f610cf7565b5b600182019050919050565b5f819050815f5260205f209050919050565b5f6020601f8301049050919050565b5f82821b905092915050565b5f60088302610dc77fffffffffffffffffffffffffffffffffffffffffffffffffffffffffffffffff82610d8c565b610dd18683610d8c565b95508019841693508086168417925050509392505050565b5f819050919050565b5f610e0c610e07610e028461078b565b610de9565b61078b565b9050919050565b5f819050919050565b610e2583610df2565b610e39610e3182610e13565b848454610d98565b825550505050565b5f90565b610e4d610e41565b610e58818484610e1c565b505050565b5b81811015610e7b57610e705f82610e45565b600181019050610e5e565b5050565b601f821115610ec057610e9181610d6b565b610e9a84610d7d565b81016020851015610ea9578190505b610ebd610eb585610d7d565b830182610e5d565b50505b505050565b5f82821c905092915050565b5f610ee05f1984600802610ec5565b1980831691505092915050565b5f610ef88383610ed1565b9150826002028217905092915050565b610f1182610a19565b67ffffffffffffffff811115610f2a57610f296107d6565b5b610f348254610ba7565b610f3f828285610e7f565b5f60209050601f831160018114610f70575f8415610f5e578287015190505b610f688582610eed565b865550610fcf565b601f198416610f7e86610d6b565b5f5b82811015610fa557848901518255600182019150602085019450602081019050610f80565b86831015610fc25784890151610fbe601f891682610ed1565b8355505b6001600288020188555050505b505050505050565b5f60a082019050610fea5f8301886109b2565b610ff76020830187610a0a565b81810360408301526110098186610a5b565b9050818103606083015261101d8185610a5b565b905061102c60808301846109b2565b969550505050505056fea26469706673582212206cc130d2a57e334d2aa60f89ef24fc2f0c2c696abe53156a42dfe691aebaa18664736f6c63430008140033",
  "immutableReferences": {},
  "source": "// SPDX-License-Identifier: MIT\r\npragma solidity ^0.8.0;\r\n\r\ncontract ConsentNFT {\r\n    struct Consent {\r\n        address user;\r\n        string whatData;\r\n        string whoCanAccess;\r\n        uint256 validUntil;\r\n        bool active;\r\n    }\r\n\r\n    uint256 public consentCounter;\r\n    mapping(uint256 => Consent) public consents;\r\n\r\n    event ConsentMinted(uint256 id, address user, string whatData, string whoCanAccess, uint256 validUntil);\r\n    event ConsentRevoked(uint256 id);\r\n\r\n    constructor() {\r\n        consentCounter = 0;\r\n    }\r\n\r\n    function mintConsent(string memory _whatData, string memory _whoCanAccess, uint256 _validUntil) public returns (uint256) {\r\n        consentCounter++;\r\n        consents[consentCounter] = Consent(msg.sender, _whatData, _whoCanAccess, _validUntil, true);\r\n        emit ConsentMinted(consentCounter, msg.sender, _whatData, _whoCanAccess, _validUntil);\r\n        return consentCounter;\r\n    }\r\n\r\n    function revokeConsent(uint256 id) public {\r\n        require(consents[id].user == msg.sender, \"Not the owner\");\r\n        require(consents[id].active, \"Already revoked\");\r\n        consents[id].active = false;\r\n        emit ConsentRevoked(id);\r\n    }\r\n\r\n    function isValid(uint256 id, string memory requester) public view returns (bool) {\r\n        Consent memory c = consents[id];\r\n        return (c.active && keccak256(abi.encodePacked(c.whoCanAccess)) == keccak256(abi.encodePacked(requester)) && block.timestamp < c.validUntil);\r\n    }\r\n}\r\n",
  "sourcePath": "G:\\canara\\blockchain\\contracts\\ConsentNFT.sol",
  "compiler": {
    "name": "solc",
    "version": "0.8.20+commit.a1b79de6.Emscripten.clang"
  },
  "schemaVersion": "3.4.16",
  "updatedAt": "2025-06-29T15:23:53.752Z",
  "devdoc": {
    "kind": "dev",
    "methods": {},
    "version": 1
  },
  "userdoc": {
    "kind": "user",
    "methods": {},
    "version": 1
  }
}