{
  "contractName": "ConsentNFT",
  "abi": [
    {
      "inputs": [],
      "stateMutability": "nonpayable",
      "type": "constructor"
    },
    {
      "anonymous": false,
      "inputs": [
        {
          "indexed": false,
          "internalType": "uint256",
          "name": "id",
          "type": "uint256"
        },
        {
          "indexed": false,
          "internalType": "address",
          "name": "user",
          "type": "address"
        },
        {
          "indexed": false,
          "internalType": "string",
          "name": "whatData",
          "type": "string"
        },
        {
          "indexed": false,
          "internalType": "string",
          "name": "whoCanAccess",
          "type": "string"
        },
        {
          "indexed": false,
          "internalType": "uint256",
          "name": "validUntil",
          "type": "uint256"
        }
      ],
      "name": "ConsentMinted",
      "type": "event"
    },
    {
      "anonymous": false,
      "inputs": [
        {
          "indexed": false,
          "internalType": "uint256",
          "name": "id",
          "type": "uint256"
        }
      ],
      "name": "ConsentRevoked",
      "type": "event"
    },
    {
      "inputs": [],
      "name": "consentCounter",
      "outputs": [
        {
          "internalType": "uint256",
          "name": "",
          "type": "uint256"
        }
      ],
      "stateMutability": "view",
      "type": "function",
      "constant": true
    },
    {
      "inputs": [
        {
          "internalType": "uint256",
          "name": "",
          "type": "uint256"
        }
      ],
      "name": "consents",
      "outputs": [
        {
          "internalType": "address",
          "name": "user",
          "type": "address"
        },
        {
          "internalType": "string",
          "name": "whatData",
          "type": "string"
        },
        {
          "internalType": "string",
          "name": "whoCanAccess",
          "type": "string"
        },
        {
          "internalType": "uint256",
          "name": "validUntil",
          "type": "uint256"
        },
        {
          "internalType": "bool",
          "name": "active",
          "type": "bool"
        }
      ],
      "stateMutability": "view",
      "type": "function",
      "constant": true
    },
    {
      "inputs": [
        {
          "internalType": "string",
          "name": "_whatData",
          "type": "string"
        },
        {
          "internalType": "string",
          "name": "_whoCanAccess",
          "type": "string"
        },
        {
          "internalType": "uint256",
          "name": "_validUntil",
          "type": "uint256"
        }
      ],
      "name": "mintConsent",
      "outputs": [
        {
          "internalType": "uint256",
          "name": "",
          "type": "uint256"
        }
      ],
      "stateMutability": "nonpayable",
      "type": "function"
    },
    {
      "inputs": [
        {
          "internalType": "uint256",
          "name": "id",
          "type": "uint256"
        }
      ],
      "name": "revokeConsent",
      "outputs": [],
      "stateMutability": "nonpayable",
      "type": "function"
    },
    {
      "inputs": [
        {
          "internalType": "uint256",
          "name": "id",
          "type": "uint256"
        },
        {
          "internalType": "string",
          "name": "requester",
          "type": "string"
        }
      ],
      "name": "isValid",
      "outputs": [
        {
          "internalType": "bool",
          "name": "",
          "type": "bool"
        }
      ],
      "stateMutability": "view",
      "type": "function",
      "constant": true
    }
  ],
  "bytecode": "0x608060405234801561001057600080fd5b5060008055610a42806100246000396000f3fe608060405234801561001057600080fd5b50600436106100575760003560e01c8063162a5b041461005c57806316a0042c146100845780638cbb952414610099578063d557d53a146100b0578063f561e86e146100d4575b600080fd5b61006f61006a3660046106c4565b6100e7565b60405190151581526020015b60405180910390f35b61009761009236600461070b565b6102cc565b005b6100a260005481565b60405190815260200161007b565b6100c36100be36600461070b565b6103d0565b60405161007b959493929190610774565b6100a26100e23660046107c4565b61051e565b6000828152600160208181526040808420815160a0810190925280546001600160a01b031682529283018054859492938401919061012490610831565b80601f016020809104026020016040519081016040528092919081815260200182805461015090610831565b801561019d5780601f106101725761010080835404028352916020019161019d565b820191906000526020600020905b81548152906001019060200180831161018057829003601f168201915b505050505081526020016002820180546101b690610831565b80601f01602080910402602001604051908101604052809291908181526020018280546101e290610831565b801561022f5780601f106102045761010080835404028352916020019161022f565b820191906000526020600020905b81548152906001019060200180831161021257829003601f168201915b50505091835250506003820154602082015260049091015460ff161515604090910152608081015190915080156102b5575082604051602001610272919061086b565b60405160208183030381529060405280519060200120816040015160405160200161029d919061086b565b60405160208183030381529060405280519060200120145b80156102c45750806060015142105b949350505050565b6000818152600160205260409020546001600160a01b031633146103275760405162461bcd60e51b815260206004820152600d60248201526c2737ba103a34329037bbb732b960991b60448201526064015b60405180910390fd5b60008181526001602052604090206004015460ff1661037a5760405162461bcd60e51b815260206004820152600f60248201526e105b1c9958591e481c995d9bdad959608a1b604482015260640161031e565b60008181526001602052604090819020600401805460ff19169055517f17ba03014e2d53e5983887aaf82c0688082a4e7010d71f88e948319fbb6fbe8c906103c59083815260200190565b60405180910390a150565b6001602081905260009182526040909120805491810180546001600160a01b03909316926103fd90610831565b80601f016020809104026020016040519081016040528092919081815260200182805461042990610831565b80156104765780601f1061044b57610100808354040283529160200191610476565b820191906000526020600020905b81548152906001019060200180831161045957829003601f168201915b50505050509080600201805461048b90610831565b80601f01602080910402602001604051908101604052809291908181526020018280546104b790610831565b80156105045780601f106104d957610100808354040283529160200191610504565b820191906000526020600020905b8154815290600101906020018083116104e757829003601f168201915b50505050600383015460049093015491929160ff16905085565b60008054818061052d83610887565b90915550506040805160a0810182523381526020808201878152828401879052606083018690526001608084018190526000805481529281905293909120825181546001600160a01b0319166001600160a01b039091161781559051919290919082019061059b90826108fd565b50604082015160028201906105b090826108fd565b50606082015160038201556080909101516004909101805460ff19169115159190911790556000546040517f8ac996e4d7e5c3ba7f4e25ead17616446092ef2e72acfad571a5271963beb94b9161060e9133908890889088906109bd565b60405180910390a1506000549392505050565b634e487b7160e01b600052604160045260246000fd5b600082601f83011261064857600080fd5b813567ffffffffffffffff8082111561066357610663610621565b604051601f8301601f19908116603f0116810190828211818310171561068b5761068b610621565b816040528381528660208588010111156106a457600080fd5b836020870160208301376000602085830101528094505050505092915050565b600080604083850312156106d757600080fd5b82359150602083013567ffffffffffffffff8111156106f557600080fd5b61070185828601610637565b9150509250929050565b60006020828403121561071d57600080fd5b5035919050565b60005b8381101561073f578181015183820152602001610727565b50506000910152565b60008151808452610760816020860160208601610724565b601f01601f19169290920160200192915050565b6001600160a01b038616815260a06020820181905260009061079890830187610748565b82810360408401526107aa8187610748565b606084019590955250509015156080909101529392505050565b6000806000606084860312156107d957600080fd5b833567ffffffffffffffff808211156107f157600080fd5b6107fd87838801610637565b9450602086013591508082111561081357600080fd5b5061082086828701610637565b925050604084013590509250925092565b600181811c9082168061084557607f821691505b60208210810361086557634e487b7160e01b600052602260045260246000fd5b50919050565b6000825161087d818460208701610724565b9190910192915050565b6000600182016108a757634e487b7160e01b600052601160045260246000fd5b5060010190565b601f8211156108f857600081815260208120601f850160051c810160208610156108d55750805b601f850160051c820191505b818110156108f4578281556001016108e1565b5050505b505050565b815167ffffffffffffffff81111561091757610917610621565b61092b816109258454610831565b846108ae565b602080601f83116001811461096057600084156109485750858301515b600019600386901b1c1916600185901b1785556108f4565b600085815260208120601f198616915b8281101561098f57888601518255948401946001909101908401610970565b50858210156109ad5787850151600019600388901b60f8161c191681555b5050505050600190811b01905550565b8581526001600160a01b038516602082015260a0604082018190526000906109e790830186610748565b82810360608401526109f98186610748565b915050826080830152969550505050505056fea264697066735822122079057804f803a8b67c1baf51d39c4ad2f6db4d112244d6aa9e05074ca046ea9764736f6c63430008130033",
  "immutableReferences": {},
  "source": "// SPDX-License-Identifier: MIT\r\npragma solidity ^0.8.19;\r\n\r\ncontract ConsentNFT {\r\n    struct Consent {\r\n        address user;\r\n        string whatData;\r\n        string whoCanAccess;\r\n        uint256 validUntil;\r\n        bool active;\r\n    }\r\n\r\n    uint256 public consentCounter;\r\n    mapping(uint256 => Consent) public consents;\r\n\r\n    event ConsentMinted(uint256 id, address user, string whatData, string whoCanAccess, uint256 validUntil);\r\n    event ConsentRevoked(uint256 id);\r\n\r\n    constructor() {\r\n        consentCounter = 0;\r\n    }\r\n\r\n    function mintConsent(string memory _whatData, string memory _whoCanAccess, uint256 _validUntil) public returns (uint256) {\r\n        consentCounter++;\r\n        consents[consentCounter] = Consent(msg.sender, _whatData, _whoCanAccess, _validUntil, true);\r\n        emit ConsentMinted(consentCounter, msg.sender, _whatData, _whoCanAccess, _validUntil);\r\n        return consentCounter;\r\n    }\r\n\r\n    function revokeConsent(uint256 id) public {\r\n        require(consents[id].user == msg.sender, \"Not the owner\");\r\n        require(consents[id].active, \"Already revoked\");\r\n        consents[id].active = false;\r\n        emit ConsentRevoked(id);\r\n    }\r\n\r\n    function isValid(uint256 id, string memory requester) public view returns (bool) {\r\n        Consent memory c = consents[id];\r\n        return (c.active && keccak256(abi.encodePacked(c.whoCanAccess)) == keccak256(abi.encodePacked(requester)) && block.timestamp < c.validUntil);\r\n    }\r\n}\r\n",
  "sourcePath": "G:\\canara\\blockchain\\contracts\\ConsentNFT.sol",
  "compiler": {
    "name": "solc",
    "version": "0.8.19+commit.7dd6d404.Emscripten.clang"
  },
  "schemaVersion": "3.4.16",
  "updatedAt": "2025-06-30T20:35:09.131Z",
  "networkType": "ethereum",
  "devdoc": {
    "kind": "dev",
    "methods": {},
    "version": 1
  },
  "userdoc": {
    "kind": "user",
    "methods": {},
    "version": 1
  }
}